:1000000059C0000074C0000072C0000070C0000041
:100010006EC000006CC000006AC0000068C0000034
:1000200066C0000064C0000062C0000060C0000044
:100030005EC0000092C000005AC0000058C000001E
:1000400056C0000054C0000052C0000050C0000064
:100050004EC000004CC000004AC0000048C0000074
:1000600046C0000044C0000042C0000040C0000084
:100070003EC000003CC000003AC0000038C0000094
:1000800036C0000034C0000032C00000D201DF01E1
:10009000EC01F90106021302200227022E02680277
:1000A0006802680268026802680268023502420259
:1000B0004F025C0211241FBECFEFD0E4DEBFCDBFE4
:1000C00011E0A0E0B1E0E2EBF6E000E00BBF02C01F
:1000D00007900D92AC31B107D9F721E0ACE1B1E066
:1000E00001C01D92AA33B207E1F7FDD1E0C288CF6B
:1000F00060930001709301018093020190930301CA
:1001000060933501709336018093370190933801E5
:1001100008958BE0809381008DE790E090938900B3
:100120008093880082E080936F0010928500109287
:1001300084008091000190910101A0910201B09191
:1001400003018093350190933601A0933701B0935A
:1001500038018FB780688FBF08951F920F920FB636
:100160000F9211248F939F93AF93BF93809135018A
:1001700090913601A0913701B09138010197A10902
:10018000B1098093350190933601A0933701B09364
:100190003801892B8A2B8B2B99F481E080933901CC
:1001A0008091000190910101A0910201B0910301A1
:1001B0008093350190933601A0933701B0933801B5
:1001C000BF91AF919F918F910F900FBE0F901F9095
:1001D00018958FEE82B90000009B29C0019B29C0B1
:1001E000029B29C0039B29C08FED82B90000009BB0
:1001F00026C0019B26C0029B26C0039B26C08FEB16
:1002000082B90000009B23C0019B23C0029B23C036
:10021000039B23C08FE782B90000009B20C0019B95
:1002200020C0029B20C0039B20C080E0089581E392
:10023000089584E3089587E308958AE2089582E3A8
:10024000089585E3089588E3089580E3089583E39E
:10025000089586E3089589E3089583E2089581E48B
:10026000089582E4089583E4089584E40895B1DF55
:100270008093330190E00895181619065CF00895F4
:10028000000021503109E1F74F5F5F4F8417950758
:1002900019F4089540E050E027E033E0F1CF5E9894
:1002A00088B95F9A00005F9882E090E0E5CF0895FA
:1002B00081E0F5CF089584E690E0DEDF88E3EFDFAC
:1002C00086E0EDDF8FE0EBDF81E0E9DF8AE090E0C0
:1002D000D3CF08955E9A88B95F9A00005F9881E055
:1002E00090E0CACF0895813118F48158D8CF08958D
:1002F0008155D5CF08950F931F93CF93DF93182F78
:10030000EB01D6DF8881882351F001E0010F812FB6
:10031000EADF8991DFDF102F88818111F6CFDF912D
:10032000CF911F910F91089580EB84B980E485B936
:1003300081E58CBD80E88FBF08958EBD85B10DB479
:1003400007FEFDCF85B10895009719F0019791F44C
:10035000BFC0E09133018FEB8E0F8430C0F0EA32E2
:1003600009F4B6C080ED8E0F8A3088F0E33209F0D0
:10037000B7C0AEC064E071E081E0BDDF80E2B3DF12
:1003800081E180933201809334018BB9A9C08E2F13
:1003900090E0FC01F197E431F10508F099C0EA5BC7
:1003A000FF4F7CC18FE09FDF81E394DF80E29BDF22
:1003B00080913201807F81608093320189C08FE01B
:1003C00092DF82E387DF80E28EDF80913201807FDF
:1003D0008260809332017CC08FE085DF83E37ADF27
:1003E00080E281DF80913201807F836080933201DF
:1003F0006FC08FE078DF84E36DDF80E274DF80918F
:100400003201807F84608093320162C08FE06BDFB5
:1004100085E360DF80E267DF80913201807F856065
:100420008093320155C08FE05EDF86E353DF80E2C8
:100430005ADF80913201807F86608093320148C00C
:1004400085E151DF81E346DF80E24DDF41C085E198
:100450004ADF82E33FDF80E246DF3AC085E143DFE7
:1004600083E338DF80E23FDF33C087E03CDF81E3B6
:1004700031DF80E238DF809132018F7080618093BC
:10048000320126C087E02FDF82E324DF80E22BDF0A
:10049000809132018F7080628093320119C087E0B1
:1004A00022DF83E317DF80E21EDF809132018F704D
:1004B0008063809332010CC087E015DF84E30ADF9C
:1004C00080E211DF809132018F708064809332016D
:1004D00080913201809334018BB9809134012DDFFA
:1004E00080E090E00895CF93DF9300D000D0CDB7A7
:1004F000DEB780EF81B98FE082B98FEF87B918B886
:100500008AB91BB8D8DE10DF0F2EF2E3EF2EF02DE4
:10051000F12C00E010E05AE040E030E020E004C0C0
:10052000E62EF72E082F192F652F742F832F922F69
:100530002E2D3F2D402F512F8FD05E2D4F2D302F40
:10054000212F611571058105910551F76AE070E071
:1005500080E090E02E2D3F2D402F512F7DD049017E
:100560005A0162E370E080E090E02E2D3F2D402F95
:10057000512F72D0A7E2B1E0BA83A983ECE1F1E098
:10058000FC83EB838FEF8C9311968D929D92AD92AD
:10059000BC92149715968D929D92AD92BC9218972D
:1005A00067E371E01A967C936E9319978083218399
:1005B000328343835483258336834783508784EA79
:1005C00091E0928781876E2D7F2D802F912F90DD76
:1005D000A0DD7E0185E0E80EF11CDE0111966D01C3
:1005E000F601019111916F01D80115964D915D9120
:1005F0006D917C91189711968D919D910D90BC9164
:10060000A02D481759076A077B0781F4F8018081FC
:100610000184F285E02D082E000C990B0995D80174
:100620008C93F8011582168217821086F801858155
:100630009681A781B0850196A11DB11D8583968302
:10064000A783B087CE14DF0459F68091390188233F
:10065000E1F310923901C1CFA1E21A2EAA1BBB1BF4
:10066000FD010DC0AA1FBB1FEE1FFF1FA217B3077E
:10067000E407F50720F0A21BB30BE40BF50B661F94
:10068000771F881F991F1A9469F760957095809558
:1006900090959B01AC01BD01CF010895EE0FFF1FA6
:1006A0000024001C0BBE0790F691E02D0994F894ED
:0206B000FFCF7A
:1006B200010000005074726E3A20312020537064A1
:0C06C2003A20312075433A20312000001E
:00000001FF
