S02100006D6F683030385F6C6162335F70617274335F73657276616E742E73726563BB
S113000045C0000060C000005EC000005CC000008D
S11300105AC0000058C0000056C0000054C0000080
S113002052C0000050C000004EC000004CC0000090
S11300304AC00000EAC0000046C0000044C00000FE
S113004042C0000040C000003EC0000023C10000C8
S11300503AC0000038C0000036C0000034C00000C0
S113006032C0000030C000002EC000002CC00000D0
S11300702AC0000028C0000026C0000024C00000E0
S113008022C0000020C000001EC0000011241FBEBA
S1130090CFEFD0E4DEBFCDBF11E0A0E0B1E0E4E2F9
S11300A0F4E000E00BBF02C007900D92A231B1074B
S11300B0D9F721E0A2E1B1E001C01D92A435B20755
S11300C0E1F7F7D0ADC19CCF009711F0009739F458
S11300D08091030180958093030180E090E008956E
S11300E0009711F0009739F4809102018095809374
S11300F0020180E090E0089580915201882311F07C
S113010081110BC090910101913021F490E89093FA
S1130110010103C096959093010190E00895009722
S113012011F0009779F480910001803831F481E076
S11301308093000180E090E00895880F809300018F
S113014080E090E0089520915101222311F000975E
S113015031F58091490182958F70813031F480911D
S113016003018BB980E090E00895823031F48091EE
S113017002018BB980E090E00895833031F48091DE
S113018001018BB980E090E00895843031F48091CE
S113019000018BB980E090E0089580E090E008953C
S11301A06093040170930501809306019093070105
S11301B060934A0170934B0180934C0190934D01DD
S11301C008958BE0809381008DE790E090938900FF
S11301D08093880082E080936F00109285001092D3
S11301E084008091040190910501A0910601B091D1
S11301F0070180934A0190934B01A0934C01B09363
S11302004D018FB780688FBF08951F920F920FB66C
S11302100F9211248F939F93AF93BF9380914A01C0
S113022090914B01A0914C01B0914D010197A1090E
S1130230B10980934A0190934B01A0934C01B09370
S11302404D01892B8A2B8B2B99F481E080934E01ED
S11302508091040190910501A0910601B0910701DC
S113026080934A0190934B01A0934C01B0934D01AC
S1130270BF91AF919F918F910F900FBE0F901F90E0
S1130280189580E484B980EB85B980EC8CBD80E856
S11302908FBF08951F920F920FB60F9211248F9360
S11302A08EB5809349018F910F900FBE0F901F90D0
S11302B01895CF93DF93CDB7DEB72A970FB6F8948E
S11302C0DEBF0FBECDBF8FEF8AB91BB84091490185
S11302D04F7050E060E070E08AE0E8E0F1E0DE01B9
S11302E0119601900D928A95E1F7EEE3F1E0108208
S11302F04183528363837483458356836783708702
S113030084E690E092878187E3E3F1E01082418301
S1130310528363837483458356836783708780E73E
S113032090E092878187E8E2F1E010824183528372
S11303306383748345835683678370878CE790E077
S113034092878187EDE1F1E01082418352836383D8
S1130350748345835683678370878FE890E0928720
S11303608187E2E1F1E010824183528363837483E5
S1130370458356836783708783EA90E092878187F9
S113038080DF1FDF0F2EF1E1BF2EF02D7E018BE009
S1130390E80EF11CB092490160ED77E080E090E056
S11303A0FFDEDE0111966D01F601019111916F01DD
S11303B0D80115964D915D916D917C911897119688
S11303C08D919D910D90BC91A02D481759076A07F6
S11303D07B0781F4F80180810184F285E02D082EE9
S11303E0000C990B0995D8018C93F801158216829B
S11303F017821086F80185819681A781B0850196C0
S1130400A11DB11D85839683A783B087CE14DF0415
S113041059F680914E018823E1F310924E01BACF30
S1070420F894FFCF7A
S11304240180AAF0010000003E01330128011D01EE
S10504341201AF
S9030000FC
