:1000000045C0000060C000005EC000005CC0000091
:100010005AC0000058C0000056C0000054C0000084
:1000200052C0000050C000004EC000004CC0000094
:100030004AC0000049C0000046C0000044C00000A3
:1000400042C0000040C000003EC0000082C000006E
:100050003AC0000038C0000036C0000034C00000C4
:1000600032C0000030C000002EC000002CC00000D4
:100070002AC0000028C0000026C0000024C00000E4
:1000800022C0000020C000001EC0000011241FBEBE
:10009000CFEFD0E4DEBFCDBF11E0A0E0B1E0E4E8F7
:1000A000F1E000E00BBF02C007900D92A430B10751
:1000B000D9F721E0A4E0B1E001C01D92AA30B20757
:1000C000E1F756D05DC09CCF1F920F920FB60F92F2
:1000D00011248F939F93AF93BF93809105019091CB
:1000E0000601A0910701B09108010197A109B1098A
:1000F0008093050190930601A0930701B093080136
:10010000892B8A2B8B2B99F481E0809309018091B4
:10011000000190910101A0910201B091030180932F
:10012000050190930601A0930701B0930801BF91C8
:10013000AF919F918F910F900FBE0F901F901895C8
:1001400080E484B980EB85B980EC8CBD80E88FBFFA
:1001500008951F920F920FB60F9211248F938EB5B0
:10016000809304018F910F900FBE0F901F901895F0
:100170008FEF8AB91BB8E4DF809104018BB9FCCF03
:04018000F894FFCF21
:040184000100000076
:00000001FF
